{
  "transactions": [
    {
      "hash": "0xf575f647086348929f873ca164747bde7bf54b4a2b7e6fbd0a7aae0b67163f34",
      "transactionType": "CALL",
      "contractName": null,
      "contractAddress": "0xd4e095ca2381c0da7af8fdcd947962c82e919f87",
      "function": "receiveMessage(bytes)",
      "arguments": [
        "0x00000000000000000000000000000000000000000000000000000000000000200000000000000000000000000000000000000000000000000000000000000033486f6c6420796f7572204a4554532057652061726520676f696e672066726f6d205365706f6c696120746f204261736520212100000000000000000000000000"
      ],
      "transaction": {
        "from": "0xd07860fedeb60db84ee7e69209ddbee3a1f02e05",
        "to": "0xd4e095ca2381c0da7af8fdcd947962c82e919f87",
        "gas": "0x2d7d2",
        "value": "0x0",
        "input": "0xf953cec70000000000000000000000000000000000000000000000000000000000000020000000000000000000000000000000000000000000000000000000000000008000000000000000000000000000000000000000000000000000000000000000200000000000000000000000000000000000000000000000000000000000000033486f6c6420796f7572204a4554532057652061726520676f696e672066726f6d205365706f6c696120746f204261736520212100000000000000000000000000",
        "nonce": "0x1",
        "chainId": "0x14a34"
      },
      "additionalContracts": [],
      "isFixedGasLimit": false
    }
  ],
  "receipts": [
    {
      "status": "0x1",
      "cumulativeGasUsed": "0x60c9cb",
      "logs": [],
      "logsBloom": "0x00000000000000000000000000000000000000000000000000000000000000000000000000000000000000000000000000000000000000000000000000000000000000000000000000000000000000000000000000000000000000000000000000000000000000000000000000000000000000000000000000000000000000000000000000000000000000000000000000000000000000000000000000000000000000000000000000000000000000000000000000000000000000000000000000000000000000000000000000000000000000000000000000000000000000000000000000000000000000000000000000000000000000000000000000000000",
      "type": "0x2",
      "transactionHash": "0xf575f647086348929f873ca164747bde7bf54b4a2b7e6fbd0a7aae0b67163f34",
      "transactionIndex": "0xd",
      "blockHash": "0xaa22e80b10590a2709fcd5aab9e9c72c1bc31fb7d2c6daf1b84c764f1e07bca4",
      "blockNumber": "0x235bda6",
      "gasUsed": "0x20eef",
      "effectiveGasPrice": "0x124f80",
      "blobGasUsed": "0x95e8",
      "from": "0xd07860fedeb60db84ee7e69209ddbee3a1f02e05",
      "to": "0xd4e095ca2381c0da7af8fdcd947962c82e919f87",
      "contractAddress": null,
      "daFootprintGasScalar": "0x138",
      "l1BaseFeeScalar": "0x44d",
      "l1BlobBaseFee": "0x38463f9",
      "l1BlobBaseFeeScalar": "0xa118b",
      "l1Fee": "0x14b71a54c",
      "l1GasPrice": "0x3867e083",
      "l1GasUsed": "0x7be"
    }
  ],
  "libraries": [],
  "pending": [],
  "returns": {},
  "timestamp": 1769921066371,
  "chain": 84532,
  "commit": "52ec2cd"
}