{
  "transactions": [
    {
      "hash": "0xe3aaecd064a9066eed7d070115fabd212e221cd056ec164ae38629a842f2f245",
      "transactionType": "CALL",
      "contractName": null,
      "contractAddress": "0xd4e095ca2381c0da7af8fdcd947962c82e919f87",
      "function": "sendMessage(bytes)",
      "arguments": [
        "0x0000000000000000000000000000000000000000000000000000000000000020000000000000000000000000000000000000000000000000000000000000003148656c6c6f20576f726d686f6c652057652061726520676f696e672066726f6d205365706f6c696120546f204261736521000000000000000000000000000000"
      ],
      "transaction": {
        "from": "0xd07860fedeb60db84ee7e69209ddbee3a1f02e05",
        "to": "0xd4e095ca2381c0da7af8fdcd947962c82e919f87",
        "gas": "0x16e46",
        "value": "0x0",
        "input": "0x82646a58000000000000000000000000000000000000000000000000000000000000002000000000000000000000000000000000000000000000000000000000000000800000000000000000000000000000000000000000000000000000000000000020000000000000000000000000000000000000000000000000000000000000003148656c6c6f20576f726d686f6c652057652061726520676f696e672066726f6d205365706f6c696120546f204261736521000000000000000000000000000000",
        "nonce": "0x1",
        "chainId": "0xaa36a7"
      },
      "additionalContracts": [],
      "isFixedGasLimit": false
    }
  ],
  "receipts": [
    {
      "status": "0x1",
      "cumulativeGasUsed": "0x512b45",
      "logs": [
        {
          "address": "0x4a8bc80ed5a4067f1ccf107057b8270e0cc11a78",
          "topics": [
            "0x6eb224fb001ed210e379b335e35efe88672a8ce935d981a6896b27ffdf52a3b2",
            "0x000000000000000000000000d4e095ca2381c0da7af8fdcd947962c82e919f87"
          ],
          "data": "0x000000000000000000000000000000000000000000000000000000000000000000000000000000000000000000000000000000000000000000000000000000000000000000000000000000000000000000000000000000000000000000000080000000000000000000000000000000000000000000000000000000000000000100000000000000000000000000000000000000000000000000000000000000800000000000000000000000000000000000000000000000000000000000000020000000000000000000000000000000000000000000000000000000000000003148656c6c6f20576f726d686f6c652057652061726520676f696e672066726f6d205365706f6c696120546f204261736521000000000000000000000000000000",
          "blockHash": "0xc9c930a493833db27962492055d8237df568a467a931e4ead28728190404af7c",
          "blockNumber": "0x9aafe6",
          "blockTimestamp": "0x69794844",
          "transactionHash": "0xe3aaecd064a9066eed7d070115fabd212e221cd056ec164ae38629a842f2f245",
          "transactionIndex": "0x1e",
          "logIndex": "0x46",
          "removed": false
        }
      ],
      "logsBloom": "0x00000000000100000000000000000010000000000000000000000000000000000010000000000000000000000000000000000000000000000000000000000000000000000000000000000000000000000001000000000000000000000100000000000000000000000000000000000000000000000000000000000000000000000000000000000000000000000000000000000000000000000000100000000000000000000400000000000000000000000000000000000800000000000000000000000000000000000000000000000000000000000000000000000000000000000000000000000000000000000200000000000000000000000000000000000000",
      "type": "0x2",
      "transactionHash": "0xe3aaecd064a9066eed7d070115fabd212e221cd056ec164ae38629a842f2f245",
      "transactionIndex": "0x1e",
      "blockHash": "0xc9c930a493833db27962492055d8237df568a467a931e4ead28728190404af7c",
      "blockNumber": "0x9aafe6",
      "gasUsed": "0xfa72",
      "effectiveGasPrice": "0x4587680c",
      "from": "0xd07860fedeb60db84ee7e69209ddbee3a1f02e05",
      "to": "0xd4e095ca2381c0da7af8fdcd947962c82e919f87",
      "contractAddress": null
    }
  ],
  "libraries": [],
  "pending": [],
  "returns": {},
  "timestamp": 1769556038507,
  "chain": 11155111,
  "commit": "19720b4"
}